:020000040000FA
:1020000020EF10F0FFFFFFFF1382FACF01F0FBCFAC
:1020100002F0F2AA0EEF10F010EF10F01AEF10F02D
:10202000F2A415EF10F017EF10F01AEF10F097EC84
:1020300010F08B8402C0FBFF01C0FAFF1392110065
:10204000DEEF10F0EBEC10F0F28EF28C8BA42BEFA5
:1020500010F02DEF10F026EF10F0030E7AEC10F0D8
:1020600003C009F004C00AF0070E086E3A0EE82E0D
:10207000FED7082EFCD700D0000E0C6E000E0B6EA3
:1020800047EF10F0040EE82EFED70B4A0C2A095039
:102090000B5C0C50800A086E0A50800A0858D8A0C1
:1020A00054EF10F056EF10F042EF10F08B9426EF43
:1020B00010F020EF10F0000E8D6E000E8C6E000EF2
:1020C000896E000E8A6E000E8B6E070E966E9268F9
:1020D0009368C30E946E95680F015E69C40E5D6FC0
:1020E0003F0E5C6F070E5F6F2F0E5B6F000E856EED
:1020F000F18E1200076E07C005F005460546C25076
:102100000518830B0518C26EC280C282C2B28BEF63
:1021100010F08DEF10F086EF10F0C450066E056AD7
:10212000C3500524036E000E0620046E1200F294C4
:102130001050D76E0FC0D6FF11501210D8B4A3EFB5
:1021400010F0A5EF10F0B2EF10F002D8B2EF10F0DF
:102150000500FA6E1150FD6E1250FE6EF850FF6EC3
:10216000FA5012001200D59C150ED76E9F0ED66E37
:10217000D650D7CF05F0066A05C006F0056A0510EF
:102180000F6E0650106EF294F28A100E036E220E3D
:10219000046E01EC11F0910ED56E1200700ED36E2C
:1021A000000ED26E800E9B6E000EB56ED2AEDBEFCF
:1021B00010F0DDEF10F0D6EF10F01200126A116A85
:1021C000106A0F6A0E6A0D6A13901392000EF86E71
:1021D000000122EF10F006EC11F05BEC10F0CEECF9
:1021E00010F0B3EC10F0F6EC10F01200000EC16E1F
:1021F000860EC06E000EC36E000EC46E010EC26E5F
:10220000120003C011F004C012F01200D09E1200A0
:102210001200FFFFFFFFFFFFFFFFFFFFFFFFFFFFBA
:10222000FFFFFFFFFFFFFFFFFFFFFFFFFFFFFFFFBE
:10223000FFFFFFFFFFFFFFFFFFFFFFFFFFFFFFFFAE
:020000040030CA
:0400000003285F3C36
:0200060081FF78
:020000040020DA
:080000000507000F00000000DD
:00000001FF
