:020000040000FA
:1020000066EF2BF00054656D7065726174757261D6
:102010003A00252E316600696E66006E616E000022
:10202000FFFFFFFFFFFFFFFFFFFFFFFFFFFFFFFFC0
:10203000FFFFFFFFFFFFFFFFFFFFFFFFFFFFFFFFB0
:10560000FFFFFFFFFFFFFFFFFFFFFFFFFFFFFFFFAA
:10561000FFFFFFFFFFFFFFFFFFFFFFFFFFFFFFFF9A
:105620001200000E33EC2BF0010E33EC2BF01200C5
:10563000000E976E000E906E000E916E1200CCEC74
:105640002BF043EC2BF018EC2BF028EC2BF0120095
:10565000000EC16E860EC06E000EC36E000EC46ECC
:10566000010EC26E1200036E8A900350CAEC2CF039
:105670008A843F0E026E550EE82EFED7022EFCD70E
:1056800000F08A941200700ED36E000ED26E800E5F
:105690009B6E000EB56ED2AE50EF2BF052EF2BF09A
:1056A0004BEF2BF0120001500302F3CF05F0F4CFC3
:1056B00006F001500402F350062602500302F35094
:1056C000062605C001F006C002F0120001EE00F04F
:1056D000500EEE6AE806FDE100EEA4F0210EEE6A3F
:1056E000E806FDE15E6A5D6A000EF86E000137EFC4
:1056F0002FF0046E04500F0B026E0450F00B036E7B
:105700008A8003380F0BCAEC2CF08A84A00EE82E96
:10571000FED78A940250CAEC2CF08A84A00EE82EA0
:10572000FED78A9412000150021003100410D8B45E
:105730009CEF2BF09EEF2BF0A6EF2BF0000E011A42
:10574000000E021A000E031A800E041A01C001F0A6
:1057500002C002F003C003F004C004F01200056EA2
:1057600005C003F003460346C2500318830B031819
:10577000C26EC280C282C2B2C0EF2BF0C2EF2BF069
:10578000BBEF2BF0C450046E036AC3500324016EB8
:10579000000E0420026E1200000E8D6E000E8C6E44
:1057A000000E896E000E8A6E000E8B6E070E966ECE
:1057B0009268800E936EC70E946E95680F015E69B5
:1057C000C40E5D6F3F0E5C6F070E5F6F2F0E5B6F39
:1057D000000E856EF18E120003C005F004C006F0C5
:1057E00001C007F002C008F005C0F6FF06C0F7FFD1
:1057F000054A062A07C0D9FF08C0DAFF074A082A67
:105800000800F5CFDFFFDF50D8A409EF2CF00BEF35
:105810002CF0F4EF2BF01200000E106E000E0F6E45
:105820001DEF2CF00EC001F0026A0CC003F00DC099
:1058300004F0D2EC2EF00F4A102A0F500A24D96E31
:1058400010500B20DA6EDF500E6E0E50D8A42BEFE6
:105850002CF02DEF2CF012EF2CF01200000E311A6C
:10586000000E321A000E331A800E341A2DC001F0C9
:105870002EC002F02FC003F030C004F031C005F09C
:1058800032C006F033C007F034C008F023EC38F023
:1058900001C02DF002C02EF003C02FF004C030F084
:1058A000120003C009F004C00AF001C007F002C0F2
:1058B00008F06BEF2CF009C0D9FF0AC0DAFFDF5007
:1058C0000B6E094A0A2A07C0D9FF08C0DAFF0BC0CD
:1058D000DFFF074A082A0506D8A00606052806E1C4
:1058E0000628D8A476EF2CF078EF2CF05BEF2CF0A4
:1058F00012009C0E4D6E000E4E6E98C04FF099C077
:1059000050F0000E536E000E526E000E5A6E000ED6
:10591000596E4F0E0001926F000E936F9AC094F073
:105920009BC095F04D0E966F000E976FA1EC2CF07A
:10593000525000019825D96E53509921DA6EDF6AD2
:10594000120094C04BF095C04CF0B6EF2CF092C012
:105950008CF093C08DF04B0E00018E6F000E8F6F98
:1059600096C090F097C091F00EEC33F04BC0F6FF6C
:105970004CC0F7FF0800F5500009D8A4C2EF2CF086
:10598000C4EF2CF0A7EF2CF0000E0001936F000E77
:10599000926F1200016E01A0D0EF2CF0D2EF2CF02C
:1059A000D5EF2CF08A86D6EF2CF08A9601A2DBEF99
:1059B0002CF0DDEF2CF0E0EF2CF08A88E1EF2CF0FA
:1059C0008A9801A4E6EF2CF0E8EF2CF0EBEF2CF036
:1059D0008A8AECEF2CF08A9A01A6F1EF2CF0F3EF13
:1059E0002CF0F6EF2CF08A8CF7EF2CF08A9C12004A
:1059F000056E0504D8A4FFEF2CF001EF2DF012EF97
:105A00002DF004507F0F086E08380F0B066E0850FB
:105A10000F0B076E065033EC2BF0075033EC2BF0D6
:105A20002AEF2DF0020E0518D8A419EF2DF01BEF68
:105A30002DF02AEF2DF00450BF0F086E08380F0B21
:105A4000066E08500F0B076E065033EC2BF0075014
:105A500033EC2BF0120004BE3AEF2DF0045003108B
:105A6000021006E10104D8B038EF2DF03AEF2DF026
:105A700055EF2DF001C005F002C006F003C007F09D
:105A800004C008F0051E061E071E081E052A000E8B
:105A900006220722082205C001F006C002F007C056
:105AA00003F008C004F05DEF2DF001C001F002C06A
:105AB00002F003C003F004C004F0120016BE63EF4E
:105AC0002DF065EF2DF06BEF2DF015C01AF016C01C
:105AD0001BF06FEF2DF0000E1B6E000E1A6E000E05
:105AE000196E000E186E81EF2DF0000E026E200E62
:105AF000016E11C003F012C004F0D2EC2EF0184A6F
:105B0000192A1A50185C1950800A176E1B50800A07
:105B10001758D8A08EEF2DF090EF2DF075EF2DF0E7
:105B200013C00AF014C00BF011C00CF012C00DF03D
:105B30000CEC2CF01200000E0A6E000E096EBBEF8A
:105B40002DF009500524076E0A500620086E07C084
:105B5000F6FF08C0F7FFF86A070EF76403D00800E5
:105B6000F55005D0F6CFE1FFF7CFE2FFE75079EC33
:105B70002BF0094A0A2A09500524076E0A5006200C
:105B8000086E07C0F6FF08C0F7FFF86A070EF76453
:105B900003D00800F55005D0F6CFE1FFF7CFE2FFC4
:105BA000E7500009D8A4D7EF2DF0D9EF2DF0A1EFE1
:105BB0002DF01200000E956E000ECAEC2CF0020EB5
:105BC000056E380E046EAD0EE82EFED7042EFCD7FF
:105BD000052EFAD700F0030E33EC2BF04E0E046EB8
:105BE000EB0EE82EFED7042EFCD700F0030E33ECAC
:105BF0002BF0AC0E046E6C0EE82EFED7042EFCD7F4
:105C000000D0030E33EC2BF0020E33EC2BF0020E1F
:105C100033EC2BF0080E33EC2BF0000E33EC2BF0B2
:105C20000C0E33EC2BF0000E33EC2BF0060E33ECA5
:105C30002BF01200000E0114096E000E02140A6E01
:105C4000800E03140B6E7F0E04140C6E09500A10A4
:105C50000B100C10D8A42FEF2EF031EF2EF039EFEF
:105C60002EF0000E016E000E026E000E036E000E8E
:105C7000046E000E0514096E000E06140A6E800EE6
:105C800007140B6E7F0E08140C6E09500A100B10CF
:105C90000C10D8A44EEF2EF050EF2EF058EF2EF04F
:105CA000000E056E000E066E000E076E000E086EEA
:105CB000055001180FE1065002180CE107500318B7
:105CC00009E108500418D8B468EF2EF06AEF2EF0FE
:105CD0006DEF2EF0D8906EEF2EF0D8801200000EEF
:105CE0000F6E000E0E6E07C0D9FF08C0DAFFDECFC0
:105CF000F6FFDDCFF7FF0800F5502A0AD8A483EF9E
:105D00002EF085EF2EF0B9EF2EF007C0D9FF08C0B6
:105D1000DAFFDE2A000EDD2209C0D9FF0AC0DAFF51
:105D2000DFCF0BF0020EDE26DFCF0CF0000EDD22FF
:105D30000BC0D9FF0CC0DAFFDECF0EF0DDCF0FF0C5
:105D4000CDEF2EF00EC001F00FC002F0000E046E79
:105D50000A0E036E53EC2BF00D5001240E6E000E54
:105D600002200F6E07C0D9FF08C0DAFFDE2A000E3E
:105D7000DD2207C0D9FF08C0DAFFDECFF6FFDDCF96
:105D8000F7FF0800F550D00F0D6E090E0D64CBEF34
:105D90002EF0CDEF2EF0A2EF2EF00EC007F00FC0C8
:105DA00008F0120003500410D8B4D9EF2EF0DBEF46
:105DB0002EF0E4EF2EF003500410D8A4E2EF2EF002
:105DC000E4EF2EF0E9EF2EF0015010EC2BF036EF5F
:105DD0002FF020EE0AF00350D9260450DA22DE50CC
:105DE000DE10D8B4F6EF2EF0F8EF2EF013EF2FF010
:105DF00020EE0AF00350D9260450DA2210EE03F008
:105E00000350E1260450E222DE50E65CE650800AB0
:105E1000096EDE50800A0958D8B011EF2FF013EF49
:105E20002FF036EF2FF020EE03F00350D926045068
:105E3000DA22DECF05F0DDCF06F003C0D9FF04C0C3
:105E4000DAFFDECF07F0DDCF08F005500724D96E6A
:105E500006500820DA6E01C0DFFF20EE03F0035089
:105E6000D9260450DA22DE2A000EDD2212001FECB1
:105E70002BF03D0E5C6EE10E5B6E400EE82EFED701
:105E80005B2EFCD75C2EFAD7DAEC2DF0030EAFECCC
:105E90002BF001C006F002C007F0086A096A000E84
:105EA0002BEC31F006C014F007C015F008C016F056
:105EB00009C017F0230E186EDB0E196EF90E1A6E5C
:105EC0003E0E1B6E0EEC36F014C0A0F015C0A1F013
:105ED00016C0A2F017C0A3F0B10E0001986F000E1B
:105EE000996F120E9A6F200E9B6FA0C09CF0A1C0FC
:105EF0009DF0A2C09EF0A3C09FF079EC2CF011ECB5
:105F00002BF0010E046E010EF8EC2CF0050E056E60
:105F1000200E066E9BEC2DF0010E046E020EF8ECC6
:105F20002CF0B10E056E000E066E9BEC2DF0070EE8
:105F30005C6E170E5B6E6A0EE82EFED75B2EFCD7EA
:105F40005C2EFAD700D046EF2FF000EF10F0A8C07B
:105F50000BF0A9C00CF0AAC00DF0ABC00EF001C050
:105F60000BF002C00CF003C00DF004C00EF00BC02B
:105F700005F00CC006F00DC007F00EC008F0180EBA
:105F8000C7EF2FF0D8900832073206320532E82EDC
:105F9000C2EF2FF00550096E0A6A09500A10D8A402
:105FA000D4EF2FF0D6EF2FF0F6EF2FF0D8900B3480
:105FB000056E0C34066E0D34076E0E34086E0550F7
:105FC000061007100810D8A4E8EF2FF0EAEF2FF022
:105FD000F0EF2FF0000E026E020E016E25EF30F092
:105FE000000E026E030E016E25EF30F009280A1034
:105FF000D8A4FDEF2FF0FFEF2FF021EF30F00BC012
:1060000005F00CC006F00DC007F00EC008F0090E38
:10601000D8900536063607360836E82E08EF30F0F9
:106020000550061007100810D8B419EF30F01CEF17
:1060300030F0010E1DEF30F0000E016E026A25EF08
:1060400030F0000E026E040E016E1200000E2D14D0
:10605000356E000E2E14366E800E2F14376E7F0EA6
:106060003014386E3550361037103810D8A43BEF46
:1060700030F03DEF30F045EF30F0000E2D6E000EA9
:106080002E6E000E2F6E000E306E000E3114356E27
:10609000000E3214366E800E3314376E7F0E3414B9
:1060A000386E3550361037103810D8A45AEF30F00B
:1060B0005CEF30F064EF30F0000E316E000E326EA7
:1060C000000E336E000E346E30AE69EF30F06BEFC1
:1060D00030F074EF30F02D6C2E1ED8B02E2A2F1E0B
:1060E000D8B02F2A800E305634AE79EF30F07BEFE7
:1060F00030F084EF30F0316C321ED8B0322A331ECB
:10610000D8B0332A800E3456000E2D1A000E2E1AE7
:10611000000E2F1A800E301A000E311A000E321A9D
:10612000000E331A800E341A31502D5C32502E5826
:1061300033502F5834503058D8B0A1EF30F0A3EF7F
:1061400030F0A6EF30F0D890A7EF30F0D8801200F2
:10615000033404340A6E0A50D8A4B1EF30F0B3EF20
:1061600030F0BDEF30F0000E016E000E026E000E3A
:10617000036E000E046E2AEF31F001C005F002C07C
:1061800006F003C007F004C008F0200ECDEF30F099
:10619000D8900832073206320532E82EC8EF30F0C8
:1061A0000550096E038EFF0E0116FF0E0216FF0E3C
:1061B0000316000E0416960E0A5E0ABEE4EF30F0D7
:1061C000E2EF30F0FAEF30F00A50800A970FD8B0C3
:1061D000ECEF30F0EEEF30F0F0EF30F0B3EF30F006
:1061E000D89004320332023201320A3EF0EF30F02E
:1061F00012EF31F01F0E0A6400EF31F002EF31F0C0
:106200000AEF31F0B3EF30F0D890013602360336A2
:1062100004360A060A50D8A410EF31F012EF31F01C
:1062200004EF31F00950D8B418EF31F01AEF31F023
:1062300022EF31F0041E031E021E016C000E02222A
:106240000322042201C001F002C002F003C003F0E7
:1062500004C004F012000E6E0E50D8B432EF31F0CC
:1062600034EF31F056EF31F009BE3BEF31F039EF4A
:1062700031F056EF31F006C00AF007C00BF008C04D
:106280000CF009C00DF00A1E0B1E0C1E0D1E0A2A72
:10629000000E0B220C220D220AC010F00BC011F0D0
:1062A0000CC012F00DC013F05EEF31F006C010F01C
:1062B00007C011F008C012F009C013F00650071013
:1062C00008100910D8A467EF31F069EF31F073EFCF
:1062D00031F0000E066E000E076E000E086E000E06
:1062E000096E04EF32F0960E0F6E7DEF31F00F2A3B
:1062F000D8901332123211321032000E10140A6E7E
:10630000000E11140B6E000E12140C6EFE0E131400
:106310000D6E0A500B100C100D10D8A492EF31F036
:1063200094EF31F077EF31F0A2EF31F00F2A010E48
:106330001026000E112212221322D890133212328C
:1063400011321032000E10140A6E000E11140B6E72
:10635000000E12140C6EFF0E13140D6E0A500B106B
:106360000C100D10D8A4B7EF31F0B9EF31F096EF63
:1063700031F0C1EF31F00F06D890103611361236D9
:10638000133612BEC6EF31F0C8EF31F0D0EF31F066
:10639000020E0F60CEEF31F0D0EF31F0BBEF31F0F5
:1063A0000FB0D5EF31F0D7EF31F0D8EF31F0129ECA
:1063B000D8900F320FC00AF00B6A0C6A0D6A0AC03F
:1063C0000DF00C6A0B6A0A6A0A5010120B50111277
:1063D0000C5012120D5013120E50D8B4F2EF31F0CF
:1063E000F4EF31F0FCEF31F009BEFBEF31F0F9EFE3
:1063F00031F0FCEF31F0138E10C006F011C007F041
:1064000012C008F013C009F01200A4C02AF0A5C001
:106410002BF0A6C02CF0A7C02DF01AC02AF01BC08C
:106420002BF01CC02CF01DC02DF0810E1E6EFF0E37
:106430001F6E2AC020F02BC021F02CC022F02DC0EE
:1064400023F0180E29EF32F0D89023322232213275
:106450002032E82E24EF32F020501E24286E000E49
:106460001F20296E29BE3EEF32F0295009E1170E98
:10647000285CD8A03EEF32F040EF32F04AEF32F025
:106480001AC01AF01BC01BF01CC01CF01DC01DF070
:106490000DEF33F029BE4FEF32F051EF32F0C1EF84
:1064A00032F028C01EF0FF0E1F6EFF0E206E7F0E12
:1064B000216E000E226E1E6660EF32F068EF32F041
:1064C00022342232213220321F321E2E5BEF32F074
:1064D0001FC024F020C025F021C026F022C027F0E4
:1064E00024502A141E6E25502B141F6E26502C1477
:1064F000206E27502D14216E1E501F1020102110C9
:10650000D8A485EF32F087EF32F089EF32F040EF18
:1065100032F02AC01EF02BC01FF02CC020F02DC07E
:1065200021F0200E99EF32F0D890213220321F3224
:106530001E32E82E94EF32F01E501F102010211052
:10654000D8B4A5EF32F0A7EF32F0AFEF32F024501D
:106550002A2625502B2226502C2227502D22241C5F
:106560001E6E251C1F6E261C206E271C216E1E50C1
:106570002A161F502B1620502C1621502D1605EFD1
:1065800033F02AC01EF02BC01FF02CC020F02DC00D
:1065900021F0200ED1EF32F0D890213220321F327C
:1065A0001E32E82ECCEF32F01E501F1020102110AA
:1065B000D8A4DDEF32F0DFEF32F0E9EF32F0000E79
:1065C0002A6E000E2B6E000E2C6E000E2D6E05EF47
:1065D00033F0D8902A341E6E2B341F6E2C34206E6C
:1065E0002D34216E1E501F1020102110D8B4FBEF47
:1065F00032F0FDEF32F005EF33F0000E2A6E000EA0
:106600002B6E800E2C6EBF0E2D6E2AC01AF02BC082
:106610001BF02CC01CF02DC01DF012008EC0D9FF45
:106620008FC0DAFFDECFF6FFDDCFF7FF0800F550B1
:10663000250AD8A41EEF33F020EF33F02CEF34F00E
:106640008EC0D9FF8FC0DAFFDE2A000EDD22000ED9
:106650000001AD6F000EAC6FACC0B0F05D685E685D
:106660008EC0D9FF8FC0DAFFDECFF6FFDDCFF7FF98
:106670000800F5502E0AD8A440EF33F042EF33F073
:1066800057EF33F08EC0D9FF8FC0DAFFDE2A000E3D
:10669000DD228EC007F08FC008F090C009F091C0D5
:1066A0000AF06FEC2EF007C05DF008C05EF08EC0FF
:1066B000D9FF8FC0DAFFDECF49F0DDCF4AF049C005
:1066C000F6FF4AC0F7FF0800F5CF48F074EF33F04B
:1066D000494A4A2A8DEF33F06C0E486E8DEF33F045
:1066E000000E486E8DEF33F04850426E436A4350BF
:1066F000000AD8B47EEF33F070EF33F042504C0A0A
:10670000D8B468EF33F02A0AD8B46CEF33F00A0A31
:10671000D8B468EF33F070EF33F049C0F6FF4AC0E9
:10672000F7FF0800F550660AD8A499EF33F09BEF05
:1067300033F023EF34F0D1EF33F090C0D9FF91C0A4
:10674000DAFFDFCF42F0040EDE26DFCF43F0000E8B
:10675000DD2242C0D9FF43C0DAFFDECF44F0DECFF6
:1067600045F0DECF46F0DECF47F0E6EF33F090C0E5
:10677000D9FF91C0DAFFDFCF42F0040EDE26DFCF73
:1067800043F0000EDD2242C0D9FF43C0DAFFDECF66
:1067900044F0DECF45F0DECF46F0DECF47F0E6EF47
:1067A00033F04850426E436A4350000AD8B4DBEFDE
:1067B00033F0E6EF33F042504C0AD8B4B7EF33F081
:1067C000200AD8B49DEF33F0E6EF33F0010E4924F0
:1067D000426E000E4A20436E8EC0D9FF8FC0DAFF92
:1067E00042C0DEFF43C0DDFF0DEF34F08CC039F056
:1067F0008DC03AF044C03BF045C03CF046C03DF08F
:1068000047C03EF049C0F6FF4AC0F7FF0800F5CF89
:106810003FF083EC3AF040EF34F049C0F6FF4AC055
:10682000F7FF0800F550426E436A4350000AD8B49F
:106830001CEF34F023EF34F04250660AD8B4F6EF80
:1068400033F023EF34F08EC0D9FF8FC0DAFFDE2A99
:10685000000EDD2240EF34F08EC0D9FF8FC0DAFF8A
:10686000DECFF6FFDDCFF7FF0800F550016E026ABC
:106870008CC003F08DC004F0D2EC2EF023EF34F086
:1068800012000450800B116E04500424186E03AEE5
:106890004CEF34F04EEF34F04FEF34F018801850D6
:1068A000D8B455EF34F057EF34F06CEF34F01828CB
:1068B000D8A45DEF34F05FEF34F067EF34F0000EF2
:1068C000016E000E026E000E036E000E046E038E4B
:1068D000000E046E74EF34F0000E016E000E026EB6
:1068E000000E036E000E046E0850800B111A085043
:1068F0000824196E07AE7FEF34F081EF34F082EF99
:1069000034F019801950D8B488EF34F08AEF34F09D
:106910009FEF34F01928D8A490EF34F092EF34F0C0
:106920009AEF34F0000E056E000E066E000E076E34
:10693000000E086E078E000E086EA7EF34F0000EF2
:10694000056E000E066E000E076E000E086E0550F6
:10695000061007100810D8A4B0EF34F0B2EF34F0EE
:10696000CAEF34F0000E016E000E026E000E036ED0
:10697000000E046E800E03127F0E041211500412DA
:1069800001C001F002C002F003C003F004C004F033
:106990000DEF36F01850D8A4D0EF34F0D2EF34F029
:1069A000DCEF34F0000E016E000E026E000E036E7E
:1069B000000E046E0DEF36F0195018C009F00A6A87
:1069C000095E000E0A5A7F0E0924126E000E0A207C
:1069D000136E01C00DF002C00EF003C00FF004C032
:1069E00010F0000E016E000E026E000E036E000E1F
:1069F000046E000E146E000E156E000E166E000E64
:106A0000176E000E196E3DEF35F01950D8B40BEF2C
:106A100035F00DEF35F024EF35F0D8900D360E3609
:106A20000F361036D890013602360336043617AECC
:106A30001CEF35F01EEF35F01FEF35F00180D890D8
:106A4000143615361636173605500D5C06500E589E
:106A500007500F5808501058D8A031EF35F033EFD9
:106A600035F03CEF35F0178C05500D5E06500E5A90
:106A700007500F5A0850105A192A190E196443EF7B
:106A800035F045EF35F005EF35F00D500E100F10D5
:106A90001010D8B44EEF35F050EF35F068EF35F008
:106AA000148068EF35F0D89001360236033604368C
:106AB00017AE5DEF35F05FEF35F060EF35F0018038
:106AC000D89014361536163617361206D8A0130687
:106AD00003AE6DEF35F06FEF35F053EF35F0000E8C
:106AE000196E17AE76EF35F078EF35F09CEF35F094
:106AF000FF0E1414096EFF0E15140A6EFF0E161405
:106B00000B6E7F0E17140C6E09500A100B100C1030
:106B1000D8B48DEF35F08FEF35F093EF35F0010EEF
:106B2000196E9CEF35F001A098EF35F09AEF35F033
:106B30009CEF35F08FEF35F01950D8B4A2EF35F057
:106B4000A4EF35F0C8EF35F0010E0126000E022249
:106B50000322042204A0AFEF35F0B1EF35F0C8EF07
:106B600035F001C009F002C00AF003C00BF004C008
:106B70000CF00C340C320B320A32093209C001F02D
:106B80000AC002F00BC003F00CC004F0124A132A32
:106B900013BED3EF35F0135008E11228D8A0D3EF7D
:106BA00035F0D5EF35F0E0EF35F0000E136E1268DA
:106BB000000E016E000E026E000E036E000E046EDB
:106BC00013BEEDEF35F0135006E11204D8B0EBEF31
:106BD00035F0EDEF35F0FBEF35F0000E136E000EE3
:106BE000126E000E016E000E026E000E036E000E9D
:106BF000046E000E116E12C018F018A002EF36F0ED
:106C000004EF36F007EF36F0038E08EF36F0039E00
:106C1000D8901830046EBEEF34F012001750800B7D
:106C2000206E17501724266E16AE19EF36F01BEFA4
:106C300036F01CEF36F026802650D8B422EF36F01E
:106C400024EF36F037EF36F02628D8A42AEF36F0B6
:106C50002CEF36F034EF36F0000E146E000E156E89
:106C6000000E166E000E176E168E3FEF36F0000EF9
:106C7000146E000E156E000E166E000E176E1B5071
:106C8000800B201A1B501B24256E1AAE4AEF36F0DB
:106C90004CEF36F04DEF36F025802550D8B453EF49
:106CA00036F055EF36F068EF36F02528D8A45BEFC4
:106CB00036F05DEF36F065EF36F0000E186E000E20
:106CC000196E000E1A6E000E1B6E1A8E70EF36F0E3
:106CD000000E186E000E196E000E1A6E000E1B6E5E
:106CE0002550D8B476EF36F078EF36F080EF36F0F6
:106CF0002650D8A47EEF36F080EF36F08AEF36F0DB
:106D0000000E146E000E156E000E166E000E176E3D
:106D100022EF38F01A501402F3CF2BF0F4CF2CF0FE
:106D20002B50216E226A236A246A2C50276E286A0F
:106D3000296A2A6A19501502F3CF2BF0F4CF2CF0F0
:106D40002B502126000E2222232224222C502726DB
:106D5000000E282229222A2218501602F3CF2BF0E7
:106D6000F4CF2CF02B502126000E222223222422A5
:106D70002C502726000E282229222A2223C024F064
:106D800022C023F021C022F0216A18501502F3CF4F
:106D90002BF0F4CF2CF02B5021262C502222000E69
:106DA0002322000E242219501402F3CF2BF0F4CF2B
:106DB0002CF02B5021262C502222000E2322000ED4
:106DC000242223C024F022C023F021C022F0216A13
:106DD00018501402F3CF2BF0F4CF2CF02B502126B7
:106DE0002C502222000E2322000E24221A501502BB
:106DF000F3CF2BF0F4CF2CF02B5027262C50282249
:106E0000000E2922000E2A2219501602F3CF2BF071
:106E1000F4CF2CF02B5027262C502822000E2922AC
:106E2000000E2A221A501602F3CF2BF0F4CF2CF0CA
:106E30002B501C6E2C501D6E1E6A1F6A1EC01FF048
:106E40001DC01EF01CC01DF01C6A1C5027261D50C2
:106E500028221E5029221F502A2221C01CF022C0A5
:106E60001DF023C01EF024C01FF0190E3DEF37F0B7
:106E7000D8901F321E321D321C32E82E38EF37F008
:106E80001C5027261D5028221E5029221F502A221E
:106E900023C024F022C023F021C022F0216A255013
:106EA00026C01CF01D6A1C26000E1D22820E1C240A
:106EB0002B6EFF0E1D202C6E73EF37F0D890273607
:106EC000283629362A3624AE68EF37F06AEF37F0D5
:106ED0006BEF37F02780D8902136223623362436C0
:106EE0002B06D8A02C0629AE78EF37F07AEF37F0D2
:106EF0005EEF37F0000E256E24AE81EF37F083EFA2
:106F000037F0A7EF37F0FF0E21141C6EFF0E22148E
:106F10001D6EFF0E23141E6E7F0E24141F6E1C5058
:106F20001D101E101F10D8B498EF37F09AEF37F0ED
:106F30009EEF37F0010E256EA7EF37F027A0A3EFE5
:106F400037F0A5EF37F0A7EF37F09AEF37F025507D
:106F5000D8B4ADEF37F0AFEF37F0D3EF37F0010E25
:106F60002726000E282229222A222AA0BAEF37F04B
:106F7000BCEF37F0D3EF37F027C01CF028C01DF06E
:106F800029C01EF02AC01FF01F341F321E321D32CE
:106F90001C321CC027F01DC028F01EC029F01FC0E5
:106FA0002AF02B4A2C2A2CBEDEEF37F02C5008E1B9
:106FB0002B28D8A0DEEF37F0E0EF37F0EAEF37F01C
:106FC000000E276E000E286E800E296E7F0E2A6E30
:106FD00018EF38F02CBEF7EF37F02C5006E12B04F9
:106FE000D8B0F5EF37F0F7EF37F003EF38F0000ED9
:106FF000276E000E286E000E296E000E2A6E000EFF
:10700000206E18EF38F02BC026F0FF0E2716FF0E6B
:1070100028167F0E2916000E2A1626A012EF38F029
:1070200014EF38F015EF38F0298ED89026302A6EFC
:1070300020502A1227C014F028C015F029C016F0DD
:107040002AC017F012000450800B0D6E0450042467
:107050000F6E03AE2EEF38F030EF38F031EF38F02E
:107060000F800F50D8B437EF38F039EF38F04EEFCB
:1070700038F00F28D8A43FEF38F041EF38F049EF4F
:1070800038F0000E016E000E026E000E036E000E50
:10709000046E038E000E046E56EF38F0000E016E83
:1070A000000E026E000E036E000E046E0850800B80
:1070B0000E6E0D500E18D8B460EF38F062EF38F055
:1070C00063EF38F00D8C085008240E6E07AE6BEF9E
:1070D00038F06DEF38F06EEF38F00E800E50D8B407
:1070E00074EF38F076EF38F08BEF38F00E28D8A434
:1070F0007CEF38F07EEF38F086EF38F0000E056E4A
:10710000000E066E000E076E000E086E078E000E53
:10711000086E93EF38F0000E056E000E066E000E3E
:10712000076E000E086E0F500E5CD8B09AEF38F064
:107130009CEF38F0C3EF38F00DACA1EF38F0A3EFBF
:1071400038F0A5EF38F0800E0D1A0FC010F00EC009
:107150000FF010C00EF001C010F005C001F010C01B
:1071600005F002C010F006C002F010C006F003C027
:1071700010F007C003F010C007F004C010F008C002
:1071800004F010C008F0000E106E0F500EC009F091
:107190000A6A095E000E0A5A0ABED8EF38F00A5091
:1071A00009E11A0E095CD8A0D8EF38F0DAEF38F010
:1071B00011EF39F00150021003100410D8A4E3EFCE
:1071C00038F0E6EF38F0010EE7EF38F0000E106E01
:1071D000000E016E000E026E000E036E000E046EB5
:1071E0000EC00FF01AEF39F010A0F9EF38F0FBEFF6
:1071F00038F001EF39F0D89010300109106E03EF2C
:1072000039F0D890103201A008EF39F00AEF39F0C8
:107210000BEF39F0108E04340432033202320132A3
:107220000F2A0E500F5CD8A018EF39F01AEF39F082
:10723000F4EF38F00DBC1FEF39F021EF39F061EFBA
:1072400039F00F50D8A427EF39F029EF39F033EF98
:1072500039F0000E016E000E026E000E036E000E7D
:10726000046E82EF3AF005500126065002220750C4
:1072700003220850042204A040EF39F042EF39F015
:10728000EEEF39F010A047EF39F049EF39F04FEF4A
:1072900039F0D89010300109106E51EF39F0D890C4
:1072A000103201A056EF39F058EF39F059EF39F0AC
:1072B000108E043404320332023201320F2AEEEF10
:1072C00039F00550015C065002580750035804502D
:1072D000800A096E0850800A0958D8B072EF39F058
:1072E00074EF39F09FEF39F00150055C096E0250E0
:1072F00006580A6E035007580B6E045008580C6E5F
:10730000FF0E0924016EFF0E0A20026EFF0E0B20F5
:10731000036EFF0E0C20046E800E0D1A106C1050C0
:10732000D8A495EF39F097EF39F0A7EF39F0010EB7
:107330000126000E022203220422A7EF39F0055095
:10734000015E0650025A0750035A0850045A015071
:10735000021003100410D8A4B0EF39F0B2EF39F0E6
:10736000E7EF39F01050D8A4B8EF39F0BAEF39F0A0
:10737000E7EF39F0000E016E000E026E000E036E94
:10738000000E046E82EF3AF0D890013602360336D2
:10739000043610AECEEF39F0D0EF39F0D1EF39F03E
:1073A000018010A0D6EF39F0D8EF39F0DCEF39F0DA
:1073B000D8801036DEEF39F0D89010360F50D8B4A0
:1073C000E4EF39F0E6EF39F0E7EF39F00F0603AEFE
:1073D000ECEF39F0EEEF39F0C4EF39F0000E0E6E3D
:1073E00010AEF5EF39F0F7EF39F00FEF3AF010C0CB
:1073F00009F07F0E0916D8B400EF3AF002EF3AF028
:1074000006EF3AF0010E0E6E0FEF3AF001A00BEF0F
:107410003AF00DEF3AF00FEF3AF002EF3AF00E507B
:10742000D8B415EF3AF017EF3AF042EF3AF0010E08
:107430000126000E02220322042204A022EF3AF0C9
:1074400024EF3AF042EF3AF001C009F002C00AF02E
:1074500003C00BF004C00CF00C340C320B320A32B7
:10746000093209C001F00AC002F00BC003F00CC0E1
:1074700004F00F28D8B43FEF3AF041EF3AF042EF72
:107480003AF00F2A0F28D8B448EF3AF04AEF3AF012
:1074900052EF3AF00F50D8A450EF3AF052EF3AF0D2
:1074A00064EF3AF0000E016E000E026E000E036EE5
:1074B000000E046E0F50D8A460EF3AF062EF3AF07D
:1074C00064EF3AF0000E0D6E0FA069EF3AF06BEF2B
:1074D0003AF06EEF3AF0038E6FEF3AF0039ED890D9
:1074E0000F30046E0DAE77EF3AF079EF3AF07AEFA5
:1074F0003AF0048E01C001F002C002F003C003F0B4
:1075000004C004F01200000E0001816F3BC084F043
:107510003CC085F03DC086F03EC087F087BF95EF48
:107520003AF093EF3AF0A9EF3AF0010E816F84C080
:1075300001F085C002F086C003F087C004F093EC30
:107540002BF001C084F002C085F003C086F004C0B7
:1075500087F0000E0001836F000E826FACC071F0E7
:10756000ADC072F08151D8B4B8EF3AF0BAEF3AF04A
:10757000CEEF3AF08151D8A4C0EF3AF0C2EF3AF022
:10758000C8EF3AF0000E676F2B0E666FCCEF3AF043
:10759000000E676F2D0E666F66C081F084C001F02B
:1075A00085C002F086C003F087C004F0A7EC2FF07E
:1075B00001040210D8A4DFEF3AF0E1EF3AF014EF43
:1075C0003BF000018151D8B4E8EF3AF0EAEF3AF02D
:1075D000F3EF3AF081C000F17107D8A07207000EF6
:1075E000836F010E826F000E8225016E010E8321D2
:1075F000026E170E036E200E046EECEC2BF00001F1
:10760000FD0E7127FF0E722339C011F03AC012F03F
:10761000000E136E010E146E71C015F072C016F0DC
:107620005EEC2DF07FEF3FF084C001F085C002F0EA
:1076300086C003F087C004F0A7EC2FF001500210C1
:10764000D8A425EF3BF027EF3BF047EF3BF00001DC
:107650008151D8B42EEF3BF030EF3BF039EF3BF0E7
:1076600081C000F17107D8A07207000E836F010E70
:10767000826F000E8225016E010E8321026E1B0EA9
:10768000036E200E046EECEC2BF0FFEF3AF0000ED0
:107690000001886F000E896F800E8A6F3F0E8B6F1E
:1076A000000E706F000E6F6F84C001F085C002F095
:1076B00086C003F087C004F0000E056E000E066E53
:1076C000000E076E000E086E1AEC2EF0D8B06BEFAD
:1076D0003BF06DEF3BF04CEF3CF07AEF3BF073C0CA
:1076E00088F074C089F075C08AF076C08BF0000114
:1076F0006F4B702B88C014F089C015F08AC016F04B
:107700008BC017F0000E186E000E196E200E1A6E48
:10771000410E1B6E0EEC36F014C073F015C074F001
:1077200016C075F017C076F000017351845D016ECC
:1077300074518559026E75518659036E7651875979
:10774000046E2BEC2DF004BEB1EF3BF0045003109F
:10775000021009E1020E015CD8A0B1EF3BF0B3EFDB
:107760003BF06FEF3BF073C02DF074C02EF075C08E
:107770002FF076C030F084C031F085C032F086C082
:1077800033F087C034F026EC30F0D8A0CAEF3BF0DD
:10779000CCEF3BF06FEF3BF000018851845D016E50
:1077A00089518559026E8A518659036E8B518759CA
:1077B000046E2BEC2DF004BEEBEF3BF004500310F5
:1077C000021007E1020E015CD8B0E9EF3BF0EBEFED
:1077D0003BF033EF3CF088C084F089C085F08AC06C
:1077E00086F08BC087F04CEF3CF088C001F089C078
:1077F00002F08AC003F08BC004F0000E056E000E8C
:10780000066E200E076E410E086E41EC34F001C08A
:1078100088F002C089F003C08AF004C08BF0000138
:107820006F07D8A070078851845D016E8951855912
:10783000026E8A518659036E8B518759046E2BEC68
:107840002DF004BE31EF3CF004500310021007E1AC
:10785000020E015CD8B02FEF3CF031EF3CF033EF7B
:107860003CF0EBEF3BF084C02DF085C02EF086C0DD
:107870002FF087C030F088C031F089C032F08AC064
:1078800033F08BC034F026EC30F0D8A04AEF3CF057
:107890004CEF3CF0F5EF3BF03FC069F069C06AF097
:1078A0005EBE55EF3CF057EF3CF05DEF3CF05DC045
:1078B00062F05EC063F062EF3CF0000E0001636FA7
:1078C000060E626F62C06DF063C06EF000016D4B1A
:1078D0006E2B660E6A19D8A470EF3CF072EF3CF084
:1078E00092EF3CF070BF79EF3CF077EF3CF085EF22
:1078F0003CF0000E886F000E896F800E8A6F3F0E7D
:107900008B6F000E706F000E6F6F670E6919D8B421
:107910008CEF3CF08EEF3CF092EF3CF06F516D2716
:1079200070516E23000E786F000E776F84C079F06F
:1079300085C07AF086C07BF087C07CF088C073F089
:1079400089C074F08AC075F08BC076F023EF3DF0EB
:1079500079C001F07AC002F07BC003F07CC004F073
:1079600088C005F089C006F08AC007F08BC008F017
:1079700041EC34F001C01AF002C01BF003C01CF04F
:1079800004C01DF005EC32F01AC07DF01BC07EF083
:107990001CC07FF01DC080F07DC001F07EC002F0F1
:1079A0007FC003F080C004F0A8EC30F001C06BF0A1
:1079B00002C06CF079C02DF07AC02EF07BC02FF0A1
:1079C0007CC030F07DC018F07EC019F07FC01AF086
:1079D00080C01BF088C014F089C015F08AC016F072
:1079E0008BC017F00EEC36F014C031F015C032F039
:1079F00016C033F017C034F02EEC2CF02DC079F007
:107A00002EC07AF02FC07BF030C07CF088C001F02F
:107A100089C002F08AC003F08BC004F0000E056E2E
:107A2000000E066E200E076E410E086E41EC34F01B
:107A300001C088F002C089F003C08AF004C08BF056
:107A40000001774B782B6D51775D7851800A406E3D
:107A50006E51800A4058D8A030EF3DF032EF3DF033
:107A6000A8EF3CF088C014F089C015F08AC016F069
:107A70008BC017F0000E186E000E196EA00E1A6E55
:107A8000400E1B6E0EEC36F014C07DF015C07EF07B
:107A900016C07FF017C080F079C02DF07AC02EF0AC
:107AA0007BC02FF07CC030F07DC031F07EC032F062
:107AB0007FC033F080C034F026EC30F0D8B063EFF4
:107AC0003DF065EF3DF070EF3DF0000E00017D6F81
:107AD000000E7E6F000E7F6F000E806F99EF3DF0FD
:107AE00079C001F07AC002F07BC003F07CC004F0E2
:107AF0007DC005F07EC006F07FC007F080C008F0B2
:107B00001AEC2EF0D8A087EF3DF089EF3DF099EF09
:107B10003DF000016BB18FEF3DF091EF3DF099EF3B
:107B20003DF0000E7D6F000E7E6F000E7F6F000E29
:107B3000806F84C001F085C002F086C003F087C06A
:107B400004F07DC005F07EC006F07FC007F080C065
:107B500008F023EC38F001C079F002C07AF003C0DD
:107B60007BF004C07CF079C02DF07AC02EF07BC091
:107B70002FF07CC030F0000E186E000E196E200E33
:107B80001A6E410E1B6E73C014F074C015F075C0F0
:107B900016F076C017F00EEC36F014C031F015C0B8
:107BA00032F016C033F017C034F026EC30F0D8A015
:107BB000DCEF3DF0DEEF3DF007EF3EF000016F4BF4
:107BC000702B73C014F074C015F075C016F076C039
:107BD00017F0000E186E000E196E200E1A6E410E70
:107BE0001B6E0EEC36F014C073F015C074F016C0A6
:107BF00075F017C076F0660E00016A19D8A403EF7D
:107C00003EF005EF3EF007EF3EF06D4B6E2B73C07C
:107C100088F074C089F075C08AF076C08BF06FC0B0
:107C200060F070C061F0000E0001686F000E656FBB
:107C3000000E646F000E786F000E776F05EF3FF057
:107C400079C001F07AC002F07BC003F07CC004F080
:107C500088C005F089C006F08AC007F08BC008F024
:107C600041EC34F001C01AF002C01BF003C01CF05C
:107C700004C01DF005EC32F01AC07DF01BC07EF090
:107C80001CC07FF01DC080F07DC001F07EC002F0FE
:107C90007FC003F080C004F0A8EC30F002BE5CEFBF
:107CA0003EF0025007E10A0E015CD8B05AEF3EF0F8
:107CB0005CEF3EF06CEF3EF07DC001F07EC002F064
:107CC0007FC003F080C004F0A8EC30F001C06BF07E
:107CD00002C06CF071EF3EF0000E00016C6F090EF7
:107CE0006B6F00016851D8A478EF3EF07AEF3EF058
:107CF000A2EF3EF061BF81EF3EF07FEF3EF0A2EFDA
:107D00003EF0000E8225D96E010E8321DA6E2E0E12
:107D1000DF6E824B832B7107D8A07207010E686F4C
:107D2000A2EF3EF0000E8225D96E010E8321DA6E9D
:107D3000300EDF6E824B832B7107D8A07207640769
:107D4000D8A0650764516511D8A4A9EF3EF0ABEF48
:107D50003EF092EF3EF0000E8225D96E010E832197
:107D6000DA6E6B51300FDF6E824B832B7107D8A018
:107D7000720779C02DF07AC02EF07BC02FF07CC046
:107D800030F07DC018F07EC019F07FC01AF080C0BE
:107D90001BF088C014F089C015F08AC016F08BC0A3
:107DA00017F00EEC36F014C031F015C032F016C0EA
:107DB00033F017C034F02EEC2CF02DC079F02EC02B
:107DC0007AF02FC07BF030C07CF088C001F089C011
:107DD00002F08AC003F08BC004F0000E056E000EA6
:107DE000066E200E076E410E086E41EC34F001C0A5
:107DF00088F002C089F003C08AF004C08BF0000153
:107E00006007D8A06107774B782B6D51775D78516B
:107E1000800A406E6E51800A4058D8B012EF3FF091
:107E200014EF3FF022EF3FF083BF20EF3FF083518C
:107E300009E14B0E825DD8A020EF3FF022EF3FF02A
:107E400020EF3EF0000E786F4F0E776F000E772513
:107E5000D96E010E7821DA6EDF6A000E406E010ED7
:107E6000416E8251405E8351415A77514024016EE8
:107E700078514120026E000E036E010E046E82C026
:107E800005F083C006F051EC2CF000018251775DC3
:107E9000826F83517859836F8151D8A452EF3FF09C
:107EA00055EF3FF0010E56EF3FF0000E776F786B05
:107EB0008151D8B45EEF3FF060EF3FF06BEF3FF0E1
:107EC0008207D8A08307000E8225D96E010E832178
:107ED000DA6E81C0DFFF7751715F7851725B39C014
:107EE00011F03AC012F0000E8225136E010E8321AC
:107EF000146E71C015F072C016F05EEC2DF0120019
:020000040030CA
:0400000003285F3C36
:0200060081FF78
:020000040020DA
:08000000060F040000000000DF
:00000001FF
