:020000040000FA
:1020000007EF10F0FFFFFFFF0E8268ED10F055EFB5
:1020100010F086EC10F078EC10F090EC10F08BA43F
:1020200014EF10F016EF10F00FEF10F03FEC10F07F
:1020300001C00AF002C00BF0070E076E3A0EE82E40
:10204000FED7072EFCD700D0000E096E000E086EDA
:102050002FEF10F0040EE82EFED7084A092A0A5086
:10206000085C0B500958D8A038EF10F03AEF10F088
:102070002AEF10F08B940FEF10F007EF10F0C282F0
:10208000C2B245EF10F047EF10F040EF10F0C4502F
:10209000046E036AC3500324056E000E0420066E0E
:1020A00005C001F006C002F01200300EF66E210EDF
:1020B000F76E000EF86E0900F5CF0CF00900F5CFB1
:1020C0000DF00B6A0A6A0E900E92000109EF10F0F3
:1020D0000600F2A46EEF10F070EF10F076EF10F043
:1020E0008B84150ED76E9F0ED66EF2940E92110051
:1020F000F29E910ED56EF294F28AF184150ED76E8F
:102100009F0ED66ED58EF28CF28E1200C150F00B5F
:102110000B09C16E000E8B6E9494000E896E120036
:10212000C250C30B0C09C26EC280BE0EC06E12003C
:102130000100FFFFFFFFFFFFFFFFFFFFFFFFFFFFAC
:020000040030CA
:08000000000E181EFF8181FFB4
:020000040020DA
:080000000D09000400000000DE
:00000001FF
