:020000040000FA
:102000005CEF2BF00054454D504552415455524120
:102010003A0025302E336600696E66006E616E00F0
:1020200000FFFFFFFFFFFFFFFFFFFFFFFFFFFFFFBF
:10203000FFFFFFFFFFFFFFFFFFFFFFFFFFFFFFFFB0
:10568000FFFFFFFFFFFFFFFFFFFFFFFFFFFFFFFF2A
:105690001200010EA1EC2CF01200C150F00B0B090E
:1056A000C16E000E896E1200C250C30B0C09C26E8F
:1056B000C280BE0EC06E120001EE00F0500EEE6A07
:1056C000E806FDE100EEA0F0250EEE6AE806FDE139
:1056D000000EF86E000110EF2EF001500302F3CF20
:1056E00005F0F4CF06F001500402F35006260250F4
:1056F0000302F350062605C001F006C002F01200B6
:10570000C282C2B286EF2BF088EF2BF081EF2BF034
:10571000C450046E036AC3500324056E000E0420B7
:10572000066E05C001F006C002F01200000E936E76
:10573000EA0E036EC30EE82EFED7032EFCD700F050
:10574000020EA1EC2CF0280EA1EC2CF0010EA1EC25
:105750002CF00C0EA1EC2CF0060EA1EC2CF012009B
:105760000150021003100410D8B4B9EF2BF0BBEFB6
:105770002BF0C3EF2BF0000E011A000E021A000EE0
:10578000031A800E041A01C001F002C002F003C027
:1057900003F004C004F01200086E020E0860D3EF9C
:1057A0002BF0D5EF2BF0DEEF2BF005500F0B80091F
:1057B000096E0950A1EC2CF0E5EF2BF005500F0B12
:1057C000C009096E0950A1EC2CF006C003F007C017
:1057D00004F01CEC2DF0120003C005F004C006F02C
:1057E00001C007F002C008F005C0F6FF06C0F7FFD1
:1057F000054A062A07C0D9FF08C0DAFF074A082A67
:105800000800F5CFDFFFDF50D8A409EF2CF00BEF35
:105810002CF0F4EF2BF01200000E106E000E0F6E45
:105820001DEF2CF00EC001F0026A0CC003F00DC099
:1058300004F0D4EC2EF00F4A102A0F500A24D96E2F
:1058400010500B20DA6EDF500E6E0E50D8A42BEFE6
:105850002CF02DEF2CF012EF2CF01200000E321A6B
:10586000000E331A000E341A800E351A2EC001F0C5
:105870002FC002F030C003F031C004F032C005F098
:1058800033C006F034C007F035C008F0EFEC37F055
:1058900001C02EF002C02FF003C030F004C031F080
:1058A000120003C009F004C00AF001C007F002C0F2
:1058B00008F06BEF2CF009C0D9FF0AC0DAFFDF5007
:1058C0000B6E094A0A2A07C0D9FF08C0DAFF0BC0CD
:1058D000DFFF074A082A0506D8A00606052806E1C4
:1058E0000628D8A476EF2CF078EF2CF05BEF2CF0A4
:1058F00012009C0E506E000E516E98C052F099C06E
:1059000053F0000E566E000E556E000E5D6E000ECA
:105910005C6E520E0001926F000E936F9AC094F06D
:105920009BC095F0500E966F000E976FF3EC2CF025
:10593000555000019825D96E56509921DA6EDF6ACC
:105940001200026E02C001F0F00E01168A500F0B19
:1059500001108A6E8A908A8200F08A92100E016E7F
:10596000940EE82EFED7012EFCD700D002C001F025
:10597000013AF00E01168A500F0B01108A6E8A82CE
:1059800000F08A922F0E016EC00EE82EFED7012E77
:10599000FCD71200026E02C001F0F00E01168A5010
:1059A0000F0B01108A6E8A808A8200F08A92100E94
:1059B000016E940EE82EFED7012EFCD700D002C057
:1059C00001F0013AF00E01168A500F0B01108A6E99
:1059D0008A8200F08A922F0E016EC00EE82EFED74A
:1059E000012EFCD7120094C04EF095C04FF008EF86
:1059F0002DF092C08CF093C08DF04E0E00018E6F92
:105A0000000E8F6F96C090F097C091F0A0EC32F02E
:105A10004EC0F6FF4FC0F7FF0800F5500009D8A4AC
:105A200014EF2DF016EF2DF0F9EF2CF0000E000121
:105A3000936F000E926F120032EF2DF003C0F6FF4D
:105A400004C0F7FFF86A070EF76403D00800F550AA
:105A500005D0F6CFE1FFF7CFE2FFE750CAEC2CF01C
:105A6000034A042A03C0F6FF04C0F7FFF86A070ED2
:105A7000F76403D00800F55005D0F6CFE1FFF7CF6B
:105A8000E2FFE7500009D8A448EF2DF04AEF2DF0CF
:105A90001EEF2DF0120004BE5AEF2DF0045003103B
:105AA000021006E10104D8B058EF2DF05AEF2DF0A6
:105AB00075EF2DF001C005F002C006F003C007F03D
:105AC00004C008F0051E061E071E081E052A000E4B
:105AD00006220722082205C001F006C002F007C016
:105AE00003F008C004F07DEF2DF001C001F002C00A
:105AF00002F003C003F004C004F0120016BE83EFEE
:105B00002DF085EF2DF08BEF2DF015C01AF016C09B
:105B10001BF08FEF2DF0000E1B6E000E1A6E000EA4
:105B2000196E000E186EA1EF2DF0000E026E200E01
:105B3000016E11C003F012C004F0D4EC2EF0184A2C
:105B4000192A1A50185C1950800A176E1B50800AC7
:105B50001758D8A0AEEF2DF0B0EF2DF095EF2DF047
:105B600013C00AF014C00BF011C00CF012C00DF0FD
:105B70000CEC2CF01200000E0114096E000E021441
:105B80000A6E800E03140B6E7F0E04140C6E095007
:105B90000A100B100C10D8A4D0EF2DF0D2EF2DF07E
:105BA000DAEF2DF0000E016E000E026E000E036E95
:105BB000000E046E000E0514096E000E06140A6E27
:105BC000800E07140B6E7F0E08140C6E09500A101D
:105BD0000B100C10D8A4EFEF2DF0F1EF2DF0F9EF32
:105BE0002DF0000E056E000E066E000E076E000E04
:105BF000086E055001180FE1065002180CE107501D
:105C0000031809E108500418D8B409EF2EF00BEF7F
:105C10002EF00EEF2EF0D8900FEF2EF0D88012005D
:105C20004DEC2BF054EC2BF096EC2BF080EC2BF0A1
:105C300001C007F002C008F0096A0A6A000EBDEC54
:105C400030F007C015F008C016F009C017F00AC000
:105C500018F0230E196EDB0E1A6EF90E1B6E3E0E37
:105C60001C6EDAEC35F015C0A8F016C0A9F017C00C
:105C7000AAF018C0ABF0000E056E050E066E200EE1
:105C8000076E010ECCEC2BF0B10E0001986F000EE8
:105C9000996F120E9A6F200E9B6FA8C09CF0A9C03E
:105CA0009DF0AAC09EF0ABC09FF079EC2CF0000EE6
:105CB000056EB10E066E000E076E020ECCEC2BF0D8
:105CC0003D0E5F6EE10E5E6E400EE82EFED75E2E3C
:105CD000FCD75F2EFAD749EC2BF016EF2EF000EF31
:105CE00010F0000E0F6E000E0E6E07C0D9FF08C038
:105CF000DAFFDECFF6FFDDCFF7FF0800F5502A0A06
:105D0000D8A485EF2EF087EF2EF0BBEF2EF007C062
:105D1000D9FF08C0DAFFDE2A000EDD2209C0D9FF54
:105D20000AC0DAFFDFCF0BF0020EDE26DFCF0CF069
:105D3000000EDD220BC0D9FF0CC0DAFFDECF0EF063
:105D4000DDCF0FF0CFEF2EF00EC001F00FC002F04C
:105D5000000E046E0A0E036E6DEC2BF00D50012444
:105D60000E6E000E02200F6E07C0D9FF08C0DAFFCA
:105D7000DE2A000EDD2207C0D9FF08C0DAFFDECF21
:105D8000F6FFDDCFF7FF0800F550D00F0D6E090EBE
:105D90000D64CDEF2EF0CFEF2EF0A4EF2EF00EC05D
:105DA00007F00FC008F0120003500410D8B4DBEF66
:105DB0002EF0DDEF2EF0E6EF2EF003500410D8A405
:105DC000E4EF2EF0E6EF2EF0EBEF2EF0015048EC72
:105DD0002BF038EF2FF020EE0AF00350D9260450B4
:105DE000DA22DE50DE10D8B4F8EF2EF0FAEF2EF003
:105DF00015EF2FF020EE0AF00350D9260450DA22D6
:105E000010EE03F00350E1260450E222DE50E65C7F
:105E1000E650800A096EDE50800A0958D8B013EFA8
:105E20002FF015EF2FF038EF2FF020EE03F0035096
:105E3000D9260450DA22DECF05F0DDCF06F003C00C
:105E4000D9FF04C0DAFFDECF07F0DDCF08F0055040
:105E50000724D96E06500820DA6E01C0DFFF20EE5D
:105E600003F00350D9260450DA22DE2A000EDD2288
:105E70001200A4C00BF0A5C00CF0A6C00DF0A7C086
:105E80000EF001C00BF002C00CF003C00DF004C016
:105E90000EF00BC005F00CC006F00DC007F00EC0F0
:105EA00008F0180E59EF2FF0D8900832073206325A
:105EB0000532E82E54EF2FF00550096E0A6A09509A
:105EC0000A10D8A466EF2FF068EF2FF088EF2FF0BC
:105ED000D8900B34056E0C34066E0D34076E0E34FC
:105EE000086E0550061007100810D8A47AEF2FF09E
:105EF0007CEF2FF082EF2FF0000E026E020E016E8B
:105F0000B7EF2FF0000E026E030E016EB7EF2FF009
:105F100009280A10D8A48FEF2FF091EF2FF0B3EFDC
:105F20002FF00BC005F00CC006F00DC007F00EC03E
:105F300008F0090ED8900536063607360836E82EE2
:105F40009AEF2FF00550061007100810D8B4ABEFE9
:105F50002FF0AEEF2FF0010EAFEF2FF0000E016E1D
:105F6000026AB7EF2FF0000E026E040E016E1200EF
:105F7000000E2E14366E000E2F14376E800E301465
:105F8000386E7F0E3114396E365037103810391094
:105F9000D8A4CDEF2FF0CFEF2FF0D7EF2FF0000EDA
:105FA0002E6E000E2F6E000E306E000E316E000E43
:105FB0003214366E000E3314376E800E3414386E81
:105FC0007F0E3514396E3650371038103910D8A47A
:105FD000ECEF2FF0EEEF2FF0F6EF2FF0000E326E19
:105FE000000E336E000E346E000E356E31AEFBEFD8
:105FF0002FF0FDEF2FF006EF30F02E6C2F1ED8B0F3
:106000002F2A301ED8B0302A800E315635AE0BEF15
:1060100030F00DEF30F016EF30F0326C331ED8B0A8
:10602000332A341ED8B0342A800E3556000E2E1A6C
:10603000000E2F1A000E301A800E311A000E321A7E
:10604000000E331A000E341A800E351A32502E5CB0
:1060500033502F583450305835503158D8B033EF72
:1060600030F035EF30F038EF30F0D89039EF30F0D5
:10607000D8801200033404340A6E0A50D8A443EFC7
:1060800030F045EF30F04FEF30F0000E016E000EB3
:10609000026E000E036E000E046EBCEF30F001C005
:1060A00005F002C006F003C007F004C008F0200E9F
:1060B0005FEF30F0D8900832073206320532E82E12
:1060C0005AEF30F00550096E038EFF0E0116FF0ED9
:1060D0000216FF0E0316000E0416960E0A5E0ABE86
:1060E00076EF30F074EF30F08CEF30F00A50800A29
:1060F000970FD8B07EEF30F080EF30F082EF30F0C5
:1061000045EF30F0D89004320332023201320A3EB9
:1061100082EF30F0A4EF30F01F0E0A6492EF30F0FF
:1061200094EF30F09CEF30F045EF30F0D89001362E
:106130000236033604360A060A50D8A4A2EF30F01D
:10614000A4EF30F096EF30F00950D8B4AAEF30F059
:10615000ACEF30F0B4EF30F0041E031E021E016CF1
:10616000000E02220322042201C001F002C002F04C
:1061700003C003F004C004F012000F6E0F50D8B437
:10618000C4EF30F0C6EF30F0E8EF30F00ABECDEFEC
:1061900030F0CBEF30F0E8EF30F007C00BF008C084
:1061A0000CF009C00DF00AC00EF00B1E0C1E0D1EE7
:1061B0000E1E0B2A000E0C220D220E220BC011F017
:1061C0000CC012F00DC013F00EC014F0F0EF30F060
:1061D00007C011F008C012F009C013F00AC014F093
:1061E0000750081009100A10D8A4F9EF30F0FBEF9F
:1061F00030F005EF31F0000E076E000E086E000E55
:10620000096E000E0A6E96EF31F0960E106E0FEFCB
:1062100031F0102AD8901432133212321132000E9B
:1062200011140B6E000E12140C6E000E13140D6E72
:10623000FE0E14140E6E0B500C100D100E10D8A480
:1062400024EF31F026EF31F009EF31F034EF31F087
:10625000102A010E1126000E122213221422D890A9
:106260001432133212321132000E11140B6E000E62
:1062700012140C6E000E13140D6EFF0E14140E6E1D
:106280000B500C100D100E10D8A449EF31F04BEF4D
:1062900031F028EF31F053EF31F01006D89011367D
:1062A00012361336143613BE58EF31F05AEF31F070
:1062B00062EF31F0020E106060EF31F062EF31F00A
:1062C0004DEF31F010B067EF31F069EF31F06AEF68
:1062D00031F0139ED890103210C00BF00C6A0D6A8A
:1062E0000E6A0BC00EF00D6A0C6A0B6A0B5011128D
:1062F0000C5012120D5013120E5014120F50D8B42D
:1063000084EF31F086EF31F08EEF31F00ABE8DEF81
:1063100031F08BEF31F08EEF31F0148E11C007F0B9
:1063200012C008F013C009F014C00AF01200A0C097
:106330002AF0A1C02BF0A2C02CF0A3C02DF01AC0EF
:106340002AF01BC02BF01CC02CF01DC02DF0810EBC
:106350001E6EFF0E1F6E2AC020F02BC021F02CC035
:1063600022F02DC023F0180EBBEF31F0D89023326D
:10637000223221322032E82EB6EF31F020501E2496
:10638000286E000E1F20296E29BED0EF31F0295053
:1063900009E1170E285CD8A0D0EF31F0D2EF31F030
:1063A000DCEF31F01AC01AF01BC01BF01CC01CF04F
:1063B0001DC01DF09FEF32F029BEE1EF31F0E3EF99
:1063C00031F053EF32F028C01EF0FF0E1F6EFF0EAB
:1063D000206E7F0E216E000E226E1E66F2EF31F0EF
:1063E000FAEF31F022342232213220321F321E2EB7
:1063F000EDEF31F01FC024F020C025F021C026F0C1
:1064000022C027F024502A141E6E25502B141F6E14
:1064100026502C14206E27502D14216E1E501F1054
:1064200020102110D8A417EF32F019EF32F01BEF33
:1064300032F0D2EF31F02AC01EF02BC01FF02CC07A
:1064400020F02DC021F0200E2BEF32F0D890213219
:1064500020321F321E32E82E26EF32F01E501F105F
:1064600020102110D8B437EF32F039EF32F041EF7D
:1064700032F024502A2625502B2226502C22275039
:106480002D22241C1E6E251C1F6E261C206E271C10
:10649000216E1E502A161F502B1620502C162150EC
:1064A0002D1697EF32F02AC01EF02BC01FF02CC023
:1064B00020F02DC021F0200E63EF32F0D890213271
:1064C00020321F321E32E82E5EEF32F01E501F10B7
:1064D00020102110D8A46FEF32F071EF32F07BEF73
:1064E00032F0000E2A6E000E2B6E000E2C6E000E87
:1064F0002D6E97EF32F0D8902A341E6E2B341F6E1B
:106500002C34206E2D34216E1E501F1020102110AF
:10651000D8B48DEF32F08FEF32F097EF32F0000EFB
:106520002A6E000E2B6E800E2C6EBF0E2D6E2AC0B2
:106530001AF02BC01BF02CC01CF02DC01DF0120057
:106540008EC0D9FF8FC0DAFFDECFF6FFDDCFF7FFB9
:106550000800F550250AD8A4B0EF32F0B2EF32F0BF
:10656000F8EF33F08EC0D9FF8FC0DAFFDE2A000EBD
:10657000DD22000E0001AD6F000EAC6FACC0B0F0BC
:10658000AE69AF69000E4A6E000E496EF3EF32F04D
:106590000001B0838EC0D9FF8FC0DAFFDE2A000E63
:1065A000DD22F3EF32F0000E4A6E010E496EF3EF7A
:1065B00032F08EC0D9FF8FC0DAFFDECFF6FFDDCF1D
:1065C000F7FF0800F550436E446A4450000AD8B4FF
:1065D000ECEF32F0D3EF32F04350300AD8B4C8EFCA
:1065E00032F0D3EF32F049504A10D8B4FAEF32F01B
:1065F000FCEF32F0D9EF32F08EC0D9FF8FC0DAFF56
:10660000DECFF6FFDDCFF7FF0800F5502E0AD8A445
:106610000CEF33F00EEF33F023EF33F08EC0D9FFE1
:106620008FC0DAFFDE2A000EDD228EC007F08FC099
:1066300008F090C009F091C00AF071EC2EF007C08C
:10664000AEF008C0AFF08EC0D9FF8FC0DAFFDECF4A
:106650004CF0DDCF4DF04CC0F6FF4DC0F7FF080009
:10666000F5CF4BF040EF33F04C4A4D2A59EF33F061
:106670006C0E4B6E59EF33F0000E4B6E59EF33F04A
:106680004B50436E446A4450000AD8B44AEF33F08A
:106690003CEF33F043504C0AD8B434EF33F02A0ABD
:1066A000D8B438EF33F00A0AD8B434EF33F03CEF03
:1066B00033F04CC0F6FF4DC0F7FF0800F550660AF6
:1066C000D8A465EF33F067EF33F0EFEF33F09DEFD1
:1066D00033F090C0D9FF91C0DAFFDFCF43F0040E52
:1066E000DE26DFCF44F0000EDD2243C0D9FF44C0D8
:1066F000DAFFDECF45F0DECF46F0DECF47F0DECF6B
:1067000048F0B2EF33F090C0D9FF91C0DAFFDFCF8D
:1067100043F0040EDE26DFCF44F0000EDD2243C03E
:10672000D9FF44C0DAFFDECF45F0DECF46F0DECF42
:1067300047F0DECF48F0B2EF33F04B50436E446A7F
:106740004450000AD8B4A7EF33F0B2EF33F043500F
:106750004C0AD8B483EF33F0200AD8B469EF33F091
:10676000B2EF33F0010E4C24436E000E4D20446E08
:106770008EC0D9FF8FC0DAFF43C0DEFF44C0DDFF0B
:10678000D9EF33F08CC03AF08DC03BF045C03CF0FF
:1067900046C03DF047C03EF048C03FF04CC0F6FF59
:1067A0004DC0F7FF0800F5CF40F04FEC3AF00CEF8A
:1067B00034F04CC0F6FF4DC0F7FF0800F550436EB3
:1067C000446A4450000AD8B4E8EF33F0EFEF33F0F6
:1067D0004350660AD8B4C2EF33F0EFEF33F08EC007
:1067E000D9FF8FC0DAFFDE2A000EDD220CEF34F075
:1067F0008EC0D9FF8FC0DAFFDECFF6FFDDCFF7FF07
:106800000800F550016E026A8CC003F08DC004F0E0
:10681000D4EC2EF0EFEF33F012000450800B116E29
:1068200004500424186E03AE18EF34F01AEF34F05D
:106830001BEF34F018801850D8B421EF34F023EF58
:1068400034F038EF34F01828D8A429EF34F02BEFC7
:1068500034F033EF34F0000E016E000E026E000EC5
:10686000036E000E046E038E000E046E40EF34F0D3
:10687000000E016E000E026E000E036E000E046E1E
:106880000850800B111A08500824196E07AE4BEF00
:1068900034F04DEF34F04EEF34F019801950D8B485
:1068A00054EF34F056EF34F06BEF34F01928D8A4DD
:1068B0005CEF34F05EEF34F066EF34F0000E056EFE
:1068C000000E066E000E076E000E086E078E000E9C
:1068D000086E73EF34F0000E056E000E066E000EAB
:1068E000076E000E086E0550061007100810D8A499
:1068F0007CEF34F07EEF34F096EF34F0000E016E52
:10690000000E026E000E036E000E046E800E031267
:106910007F0E04121150041201C001F002C002F0F7
:1069200003C003F004C004F0D9EF35F01850D8A428
:106930009CEF34F09EEF34F0A8EF34F0000E016EBF
:10694000000E026E000E036E000E046ED9EF35F0DD
:10695000195018C009F00A6A095E000E0A5A7F0E23
:106960000924126E000E0A20136E01C00DF002C041
:106970000EF003C00FF004C010F0000E016E000E08
:10698000026E000E036E000E046E000E146E000EFA
:10699000156E000E166E000E176E000E196E09EFC2
:1069A00035F01950D8B4D7EF34F0D9EF34F0F0EF18
:1069B00034F0D8900D360E360F361036D89001369A
:1069C00002360336043617AEE8EF34F0EAEF34F05F
:1069D000EBEF34F00180D8901436153616361736A2
:1069E00005500D5C06500E5807500F5808501058AF
:1069F000D8A0FDEF34F0FFEF34F008EF35F0178C3E
:106A000005500D5E06500E5A07500F5A0850105A86
:106A1000192A190E19640FEF35F011EF35F0D1EF87
:106A200034F00D500E100F101010D8B41AEF35F0CE
:106A30001CEF35F034EF35F0148034EF35F0D8909A
:106A4000013602360336043617AE29EF35F02BEF48
:106A500035F02CEF35F00180D89014361536163607
:106A600017361206D8A0130603AE39EF35F03BEF08
:106A700035F01FEF35F0000E196E17AE42EF35F00E
:106A800044EF35F068EF35F0FF0E1414096EFF0E79
:106A900015140A6EFF0E16140B6E7F0E17140C6E73
:106AA00009500A100B100C10D8B459EF35F05BEFF9
:106AB00035F05FEF35F0010E196E68EF35F001A08B
:106AC00064EF35F066EF35F068EF35F05BEF35F0E9
:106AD0001950D8B46EEF35F070EF35F094EF35F013
:106AE000010E0126000E02220322042204A07BEFE5
:106AF00035F07DEF35F094EF35F001C009F002C0BC
:106B00000AF003C00BF004C00CF00C340C320B3252
:106B10000A32093209C001F00AC002F00BC003F0CA
:106B20000CC004F0124A132A13BE9FEF35F0135025
:106B300008E11228D8A09FEF35F0A1EF35F0ACEFB7
:106B400035F0000E136E1268000E016E000E026E1C
:106B5000000E036E000E046E13BEB9EF35F0135035
:106B600006E11204D8B0B7EF35F0B9EF35F0C7EF52
:106B700035F0000E136E000E126E000E016E000E48
:106B8000026E000E036E000E046E000E116E12C037
:106B900018F018A0CEEF35F0D0EF35F0D3EF35F088
:106BA000038ED4EF35F0039ED8901830046E8AEF30
:106BB00034F012001850800B216E18501824276EE4
:106BC00017AEE5EF35F0E7EF35F0E8EF35F0278069
:106BD0002750D8B4EEEF35F0F0EF35F003EF36F094
:106BE0002728D8A4F6EF35F0F8EF35F000EF36F0AF
:106BF000000E156E000E166E000E176E000E186E4B
:106C0000178E0BEF36F0000E156E000E166E000E8E
:106C1000176E000E186E1C50800B211A1C501C247D
:106C2000266E1BAE16EF36F018EF36F019EF36F081
:106C300026802650D8B41FEF36F021EF36F034EF1F
:106C400036F02628D8A427EF36F029EF36F031EFBA
:106C500036F0000E196E000E1A6E000E1B6E000E3E
:106C60001C6E1B8E3CEF36F0000E196E000E1A6E75
:106C7000000E1B6E000E1C6E2650D8B442EF36F08C
:106C800044EF36F04CEF36F02750D8A44AEF36F0F8
:106C90004CEF36F056EF36F0000E156E000E166E05
:106CA000000E176E000E186EEEEF37F01B50150237
:106CB000F3CF2CF0F4CF2DF02C50226E236A246AEF
:106CC000256A2D50286E296A2A6A2B6A1A501602E4
:106CD000F3CF2CF0F4CF2DF02C502226000E2322DF
:106CE000242225222D502826000E29222A222B225A
:106CF00019501702F3CF2CF0F4CF2DF02C50222690
:106D0000000E2322242225222D502826000E29227F
:106D10002A222B2224C025F023C024F022C023F0F5
:106D2000226A19501602F3CF2CF0F4CF2DF02C501C
:106D300022262D502322000E2422000E25221A5036
:106D40001502F3CF2CF0F4CF2DF02C5022262D502D
:106D50002322000E2422000E252224C025F023C069
:106D600024F022C023F0226A19501502F3CF2CF030
:106D7000F4CF2DF02C5022262D502322000E242259
:106D8000000E25221B501602F3CF2CF0F4CF2DF06D
:106D90002C5028262D502922000E2A22000E2B22AC
:106DA0001A501702F3CF2CF0F4CF2DF02C502826D8
:106DB0002D502922000E2A22000E2B221B501702D2
:106DC000F3CF2CF0F4CF2DF02C501D6E2D501E6EF5
:106DD0001F6A206A1FC020F01EC01FF01DC01EF0D9
:106DE0001D6A1D5028261E5029221F502A2220507D
:106DF0002B2222C01DF023C01EF024C01FF025C08E
:106E000020F0190E09EF37F0D89020321F321E32D1
:106E10001D32E82E04EF37F01D5028261E5029227F
:106E20001F502A2220502B2224C025F023C024F0FA
:106E300022C023F0226A265027C01DF01E6A1D269C
:106E4000000E1E22820E1D242C6EFF0E1E202D6EA3
:106E50003FEF37F0D890283629362A362B3625AE24
:106E600034EF37F036EF37F037EF37F02880D8902F
:106E700022362336243625362C06D8A02D062AAEF7
:106E800044EF37F046EF37F02AEF37F0000E266E6A
:106E900025AE4DEF37F04FEF37F073EF37F0FF0EC1
:106EA00022141D6EFF0E23141E6EFF0E24141F6E7F
:106EB0007F0E2514206E1D501E101F102010D8B4F8
:106EC00064EF37F066EF37F06AEF37F0010E266EA9
:106ED00073EF37F028A06FEF37F071EF37F073EFF3
:106EE00037F066EF37F02650D8B479EF37F07BEF04
:106EF00037F09FEF37F0010E2826000E29222A22B4
:106F00002B222BA086EF37F088EF37F09FEF37F07A
:106F100028C01DF029C01EF02AC01FF02BC020F091
:106F2000203420321F321E321D321DC028F01EC0F8
:106F300029F01FC02AF020C02BF02C4A2D2A2DBE8C
:106F4000AAEF37F02D5008E12C28D8A0AAEF37F08F
:106F5000ACEF37F0B6EF37F0000E286E000E296E5A
:106F6000800E2A6E7F0E2B6EE4EF37F02DBEC3EF3E
:106F700037F02D5006E12C04D8B0C1EF37F0C3EF45
:106F800037F0CFEF37F0000E286E000E296E000E9E
:106F90002A6E000E2B6E000E216EE4EF37F02CC02F
:106FA00027F0FF0E2816FF0E29167F0E2A16000E58
:106FB0002B1627A0DEEF37F0E0EF37F0E1EF37F0E8
:106FC0002A8ED89027302B6E21502B1228C015F016
:106FD00029C016F02AC017F02BC018F01200045078
:106FE000800B0D6E045004240F6E03AEFAEF37F0E1
:106FF000FCEF37F0FDEF37F00F800F50D8B403EF00
:1070000038F005EF38F01AEF38F00F28D8A40BEF5E
:1070100038F00DEF38F015EF38F0000E016E000E6D
:10702000026E000E036E000E046E038E000E046EE0
:1070300022EF38F0000E016E000E026E000E036E9D
:10704000000E046E0850800B0E6E0D500E18D8B452
:107050002CEF38F02EEF38F02FEF38F00D8C085071
:1070600008240E6E07AE37EF38F039EF38F03AEFFC
:1070700038F00E800E50D8B440EF38F042EF38F0C0
:1070800057EF38F00E28D8A448EF38F04AEF38F020
:1070900052EF38F0000E056E000E066E000E076E01
:1070A000000E086E078E000E086E5FEF38F0000EBF
:1070B000056E000E066E000E076E000E086E0F5075
:1070C0000E5CD8B066EF38F068EF38F08FEF38F02C
:1070D0000DAC6DEF38F06FEF38F071EF38F0800ED7
:1070E0000D1A0FC010F00EC00FF010C00EF001C04E
:1070F00010F005C001F010C005F002C010F006C08D
:1071000002F010C006F003C010F007C003F010C07A
:1071100007F004C010F008C004F010C008F0000E22
:10712000106E0F500EC009F00A6A095E000E0A5A6E
:107130000ABEA4EF38F00A5009E11A0E095CD8A083
:10714000A4EF38F0A6EF38F0DDEF38F00150021070
:1071500003100410D8A4AFEF38F0B2EF38F0010EEE
:10716000B3EF38F0000E106E000E016E000E026ECE
:10717000000E036E000E046E0EC00FF0E6EF38F046
:1071800010A0C5EF38F0C7EF38F0CDEF38F0D89049
:1071900010300109106ECFEF38F0D890103201A0F6
:1071A000D4EF38F0D6EF38F0D7EF38F0108E043443
:1071B00004320332023201320F2A0E500F5CD8A083
:1071C000E4EF38F0E6EF38F0C0EF38F00DBCEBEF4D
:1071D00038F0EDEF38F02DEF39F00F50D8A4F3EF81
:1071E00038F0F5EF38F0FFEF38F0000E016E000ECA
:1071F000026E000E036E000E046E4EEF3AF0055064
:10720000012606500222075003220850042204A03F
:107210000CEF39F00EEF39F0BAEF39F010A013EFA0
:1072200039F015EF39F01BEF39F0D8901030010923
:10723000106E1DEF39F0D890103201A022EF39F016
:1072400024EF39F025EF39F0108E04340432033284
:10725000023201320F2ABAEF39F00550015C0650B4
:107260000258075003580450800A096E0850800ADB
:107270000958D8B03EEF39F040EF39F06BEF39F0F4
:107280000150055C096E025006580A6E03500758FB
:107290000B6E045008580C6EFF0E0924016EFF0E91
:1072A0000A20026EFF0E0B20036EFF0E0C20046EF0
:1072B000800E0D1A106C1050D8A461EF39F063EFF6
:1072C00039F073EF39F0010E0126000E022203227D
:1072D000042273EF39F00550015E0650025A075040
:1072E000035A0850045A0150021003100410D8A485
:1072F0007CEF39F07EEF39F0B3EF39F01050D8A4BD
:1073000084EF39F086EF39F0B3EF39F0000E016EFB
:10731000000E026E000E036E000E046E4EEF3AF089
:10732000D890013602360336043610AE9AEF39F0A3
:107330009CEF39F09DEF39F0018010A0A2EF39F0F9
:10734000A4EF39F0A8EF39F0D8801036AAEF39F061
:10735000D89010360F50D8B4B0EF39F0B2EF39F002
:10736000B3EF39F00F0603AEB8EF39F0BAEF39F0EA
:1073700090EF39F0000E0E6E10AEC1EF39F0C3EF92
:1073800039F0DBEF39F010C009F07F0E0916D8B4E0
:10739000CCEF39F0CEEF39F0D2EF39F0010E0E6EAE
:1073A000DBEF39F001A0D7EF39F0D9EF39F0DBEF9F
:1073B00039F0CEEF39F00E50D8B4E1EF39F0E3EF09
:1073C00039F00EEF3AF0010E0126000E02220322E0
:1073D000042204A0EEEF39F0F0EF39F00EEF3AF0AE
:1073E00001C009F002C00AF003C00BF004C00CF0A9
:1073F0000C340C320B320A32093209C001F00AC0D7
:1074000002F00BC003F00CC004F00F28D8B40BEF4F
:107410003AF00DEF3AF00EEF3AF00F2A0F28D8B4F9
:1074200014EF3AF016EF3AF01EEF3AF00F50D8A4EE
:107430001CEF3AF01EEF3AF030EF3AF0000E016E1A
:10744000000E026E000E036E000E046E0F50D8A4E4
:107450002CEF3AF02EEF3AF030EF3AF0000E0D6ECE
:107460000FA035EF3AF037EF3AF03AEF3AF0038EEB
:107470003BEF3AF0039ED8900F30046E0DAE43EF11
:107480003AF045EF3AF046EF3AF0048E01C001F0D1
:1074900002C002F003C003F004C004F01200000EAA
:1074A0000001816F3CC082F03DC083F03EC084F09B
:1074B0003FC085F085BF61EF3AF05FEF3AF075EFBE
:1074C0003AF0010E816F82C001F083C002F084C0E7
:1074D00003F085C004F0B0EC2BF001C082F002C0D4
:1074E00083F003C084F004C085F0000E0001876FB4
:1074F000000E866FACC071F0ADC072F08151D8B48F
:1075000084EF3AF086EF3AF09AEF3AF08151D8A43E
:107510008CEF3AF08EEF3AF094EF3AF0000E676F8E
:107520002B0E666F98EF3AF0000E676F2D0E666FA8
:1075300066C081F082C001F083C002F084C003F015
:1075400085C004F039EC2FF001040210D8A4ABEF91
:107550003AF0ADEF3AF0E0EF3AF000018151D8B4E3
:10756000B4EF3AF0B6EF3AF0BFEF3AF081C000F175
:107570007107D8A07207000E876F010E866F000E8C
:107580008625016E010E8721026E180E036E200EF5
:10759000046EECEC2BF00001FD0E7127FF0E722340
:1075A0003AC011F03BC012F0000E136E010E146EC3
:1075B00071C015F072C016F07EEC2DF07FEF3FF039
:1075C00082C001F083C002F084C003F085C004F0E3
:1075D00039EC2FF001500210D8A4F1EF3AF0F3EF9C
:1075E0003AF013EF3BF000018151D8B4FAEF3AF0D2
:1075F000FCEF3AF005EF3BF081C000F17107D8A035
:107600007207000E876F010E866F000E8625016ED1
:10761000010E8721026E1C0E036E200E046EECEC30
:107620002BF0CBEF3AF0000E0001886F000E896F4F
:10763000800E8A6F3F0E8B6F000E706F000E6F6FA3
:1076400082C001F083C002F084C003F085C004F062
:10765000000E056E000E066E000E076E000E086E20
:10766000BBEC2DF0D8B037EF3BF039EF3BF018EF23
:107670003CF046EF3BF073C088F074C089F075C0F1
:107680008AF076C08BF000016F4B702B88C015F02C
:1076900089C016F08AC017F08BC018F0000E196E62
:1076A000000E1A6E200E1B6E410E1C6EDAEC35F0C9
:1076B00015C073F016C074F017C075F018C076F0DE
:1076C00000017351825D016E74518359026E7551D0
:1076D0008459036E76518559046E4BEC2DF004BE2F
:1076E0007DEF3BF004500310021009E1020E015C33
:1076F000D8A07DEF3BF07FEF3BF03BEF3BF073C05A
:107700002EF074C02FF075C030F076C031F082C01A
:1077100032F083C033F084C034F085C035F0B8EC6B
:107720002FF0D8A096EF3BF098EF3BF03BEF3BF00B
:1077300000018851825D016E89518359026E8A5120
:107740008459036E8B518559046E4BEC2DF004BEA9
:10775000B7EF3BF004500310021007E1020E015C8A
:10776000D8B0B5EF3BF0B7EF3BF0FFEF3BF088C090
:1077700082F089C083F08AC084F08BC085F018EF56
:107780003CF088C001F089C002F08AC003F08BC0D1
:1077900004F0000E056E000E066E200E076E410E00
:1077A000086E0DEC34F001C088F002C089F003C00F
:1077B0008AF004C08BF000016F07D8A070078851D1
:1077C000825D016E89518359026E8A518459036E1C
:1077D0008B518559046E4BEC2DF004BEFDEF3BF050
:1077E00004500310021007E1020E015CD8B0FBEF59
:1077F0003BF0FDEF3BF0FFEF3BF0B7EF3BF082C01B
:107800002EF083C02FF084C030F085C031F088C0E6
:1078100032F089C033F08AC034F08BC035F0B8EC58
:107820002FF0D8A016EF3CF018EF3CF0C1EF3BF082
:1078300040C069F069C06AF00001AFBF22EF3CF0C0
:1078400024EF3CF02AEF3CF0AEC062F0AFC063F032
:107850002EEF3CF0000E636F060E626F62C06DF09B
:1078600063C06EF06D4B6E2B660E6A19D8A43BEFA9
:107870003CF03DEF3CF05DEF3CF070BF44EF3CF07E
:1078800042EF3CF050EF3CF0000E886F000E896F25
:10789000800E8A6F3F0E8B6F000E706F000E6F6F41
:1078A000670E6919D8B457EF3CF059EF3CF05DEF23
:1078B0003CF06F516D2770516E23000E806F000EEB
:1078C0007F6F82C077F083C078F084C079F085C084
:1078D0007AF088C073F089C074F08AC075F08BC0EC
:1078E00076F0EEEF3CF077C001F078C002F079C09E
:1078F00003F07AC004F088C005F089C006F08AC0A1
:1079000007F08BC008F00DEC34F001C01AF002C093
:107910001BF003C01CF004C01DF097EC31F01AC03E
:107920007BF01BC07CF01CC07DF01DC07EF07BC0D6
:1079300001F07CC002F07DC003F07EC004F03AECA0
:1079400030F001C06BF002C06CF077C02EF078C050
:107950002FF079C030F07AC031F07BC019F07CC0D4
:107960001AF07DC01BF07EC01CF088C015F089C0E5
:1079700016F08AC017F08BC018F0DAEC35F015C09D
:1079800032F016C033F017C034F018C035F02EECCA
:107990002CF02EC077F02FC078F030C079F031C0D5
:1079A0007AF088C001F089C002F08AC003F08BC071
:1079B00004F0000E056E000E066E200E076E410EDE
:1079C000086E0DEC34F001C088F002C089F003C0ED
:1079D0008AF004C08BF000017F4B802B6D517F5DDE
:1079E0008051800A416E6E51800A4158D8A0FBEF49
:1079F0003CF0FDEF3CF073EF3CF088C015F089C01F
:107A000016F08AC017F08BC018F0000E196E000E29
:107A10001A6EA00E1B6E400E1C6EDAEC35F015C00F
:107A20007BF016C07CF017C07DF018C07EF077C0E8
:107A30002EF078C02FF079C030F07AC031F07BC0E2
:107A400032F07CC033F07DC034F07EC035F0B8EC4D
:107A50002FF0D8B02EEF3DF030EF3DF03BEF3DF092
:107A6000000E00017B6F000E7C6F000E7D6F000E1C
:107A70007E6F64EF3DF077C001F078C002F079C00E
:107A800003F07AC004F07BC005F07CC006F07DC036
:107A900007F07EC008F0BBEC2DF0D8A052EF3DF00F
:107AA00054EF3DF064EF3DF000016BB15AEF3DF053
:107AB0005CEF3DF064EF3DF0000E7B6F000E7C6FDD
:107AC000000E7D6F000E7E6F82C001F083C002F059
:107AD00084C003F085C004F07BC005F07CC006F0D4
:107AE0007DC007F07EC008F0EFEC37F001C077F002
:107AF00002C078F003C079F004C07AF077C02EF0AD
:107B000078C02FF079C030F07AC031F0000E196ED5
:107B1000000E1A6E200E1B6E410E1C6E73C015F007
:107B200074C016F075C017F076C018F0DAEC35F0B6
:107B300015C032F016C033F017C034F018C035F05D
:107B4000B8EC2FF0D8A0A7EF3DF0A9EF3DF0D2EFB1
:107B50003DF000016F4B702B73C015F074C016F030
:107B600075C017F076C018F0000E196E000E1A6E70
:107B7000200E1B6E410E1C6EDAEC35F015C073F052
:107B800016C074F017C075F018C076F0660E0001CC
:107B90006A19D8A4CEEF3DF0D0EF3DF0D2EF3DF022
:107BA0006D4B6E2B73C088F074C089F075C08AF07D
:107BB00076C08BF06FC060F070C061F0000E000105
:107BC000686F000E656F000E646F000E806F000E10
:107BD0007F6FD0EF3EF077C001F078C002F079C03F
:107BE00003F07AC004F088C005F089C006F08AC0AE
:107BF00007F08BC008F00DEC34F001C01AF002C0A1
:107C00001BF003C01CF004C01DF097EC31F01AC04B
:107C10007BF01BC07CF01CC07DF01DC07EF07BC0E3
:107C200001F07CC002F07DC003F07EC004F03AECAD
:107C300030F002BE27EF3EF0025007E10A0E015C71
:107C4000D8B025EF3EF027EF3EF037EF3EF07BC097
:107C500001F07CC002F07DC003F07EC004F03AEC7D
:107C600030F001C06BF002C06CF03CEF3EF0000E53
:107C700000016C6F090E6B6F00016851D8A443EFCF
:107C80003EF045EF3EF06DEF3EF061BF4CEF3EF051
:107C90004AEF3EF06DEF3EF0000E8625D96E010EE4
:107CA0008721DA6E2E0EDF6E864B872B7107D8A0E8
:107CB0007207010E686F6DEF3EF0000E8625D96EDB
:107CC000010E8721DA6E300EDF6E864B872B71072F
:107CD000D8A072076407D8A0650764516511D8A4BD
:107CE00074EF3EF076EF3EF05DEF3EF0000E86253D
:107CF000D96E010E8721DA6E6B51300FDF6E864B25
:107D0000872B7107D8A0720777C02EF078C02FF0AC
:107D100079C030F07AC031F07BC019F07CC01AF025
:107D20007DC01BF07EC01CF088C015F089C016F025
:107D30008AC017F08BC018F0DAEC35F015C032F0BD
:107D400016C033F017C034F018C035F02EEC2CF00C
:107D50002EC077F02FC078F030C079F031C07AF0C3
:107D600088C001F089C002F08AC003F08BC004F023
:107D7000000E056E000E066E200E076E410E086E98
:107D80000DEC34F001C088F002C089F003C08AF025
:107D900004C08BF000016007D8A061077F4B802BE7
:107DA0006D517F5D8051800A416E6E51800A41584D
:107DB000D8B0DDEF3EF0DFEF3EF0EDEF3EF087BFF5
:107DC000EBEF3EF0875109E14B0E865DD8A0EBEF5B
:107DD0003EF0EDEF3EF0EBEF3DF0000E806F4F0E0A
:107DE0007F6F000E7F25D96E010E8021DA6EDF6A6B
:107DF000000E416E010E426E8651415E8751425A1D
:107E00007F514124016E80514220026E000E036EAC
:107E1000010E046E86C005F087C006F051EC2CF010
:107E2000000186517F5D866F87518059876F815130
:107E3000D8A41DEF3FF020EF3FF0010E21EF3FF0FF
:107E4000000E7F6F806BB0A328EF3FF02AEF3FF06A
:107E500058EF3FF03AEF3FF08607D8A08707000EB3
:107E60008625D96E010E8721DA6E300EDF6E71071E
:107E7000D8A0720771517F5D8051800A416E7251A6
:107E8000800A4158D8B047EF3FF049EF3FF058EF34
:107E90003FF086517F5D8051800A416E8751800A94
:107EA0004158D8A056EF3FF058EF3FF02CEF3FF08D
:107EB0008151D8B45EEF3FF060EF3FF06BEF3FF0E1
:107EC0008607D8A08707000E8625D96E010E872168
:107ED000DA6E81C0DFFF7F51715F8051725B3AC003
:107EE00011F03BC012F0000E8625136E010E8721A3
:107EF000146E71C015F072C016F07EEC2DF01200F9
:020000040030CA
:08000000000E181EFF8181FFB4
:020000040020DA
:080000000D0A070600000000D4
:00000001FF
